{"contracts/Verifier.sol":{"Verifier":{"abi":[{"inputs":[{"internalType":"bytes","name":"","type":"bytes"},{"internalType":"uint256[]","name":"","type":"uint256[]"}],"name":"verifyProof","outputs":[{"internalType":"bool","name":"","type":"bool"}],"stateMutability":"pure","type":"function"}],"evm":{"bytecode":{"linkReferences":{},"object":"608060405234801561001057600080fd5b506103a8806100206000396000f3fe608060405234801561001057600080fd5b506004361061002b5760003560e01c80631e8e1e1314610030575b600080fd5b61004a600480360381019061004591906102c4565b610060565b6040516100579190610357565b60405180910390f35b60006001905092915050565b6000604051905090565b600080fd5b600080fd5b600080fd5b600080fd5b6000601f19601f8301169050919050565b7f4e487b7100000000000000000000000000000000000000000000000000000000600052604160045260246000fd5b6100d38261008a565b810181811067ffffffffffffffff821117156100f2576100f161009b565b5b80604052505050565b600061010561006c565b905061011182826100ca565b919050565b600067ffffffffffffffff8211156101315761013061009b565b5b61013a8261008a565b9050602081019050919050565b82818337600083830152505050565b600061016961016484610116565b6100fb565b90508281526020810184848401111561018557610184610085565b5b610190848285610147565b509392505050565b600082601f8301126101ad576101ac610080565b5b81356101bd848260208601610156565b91505092915050565b600067ffffffffffffffff8211156101e1576101e061009b565b5b602082029050602081019050919050565b600080fd5b6000819050919050565b61020a816101f7565b811461021557600080fd5b50565b60008135905061022781610201565b92915050565b600061024061023b846101c6565b6100fb565b90508083825260208201905060208402830185811115610263576102626101f2565b5b835b8181101561028c57806102788882610218565b845260208401935050602081019050610265565b5050509392505050565b600082601f8301126102ab576102aa610080565b5b81356102bb84826020860161022d565b91505092915050565b600080604083850312156102db576102da610076565b5b600083013567ffffffffffffffff8111156102f9576102f861007b565b5b61030585828601610198565b925050602083013567ffffffffffffffff8111156103265761032561007b565b5b61033285828601610296565b9150509250929050565b60008115159050919050565b6103518161033c565b82525050565b600060208201905061036c6000830184610348565b9291505056fea264697066735822122036ef9c535976fdc0a277c97750244f93a3df0f753512a02d890c6a7608748e4064736f6c63430008130033","opcodes":"PUSH1 0x80 PUSH1 0x40 MSTORE CALLVALUE DUP1 ISZERO PUSH2 0x10 JUMPI PUSH1 0x0 DUP1 REVERT JUMPDEST POP PUSH2 0x3A8 DUP1 PUSH2 0x20 PUSH1 0x0 CODECOPY PUSH1 0x0 RETURN INVALID PUSH1 0x80 PUSH1 0x40 MSTORE CALLVALUE DUP1 ISZERO PUSH2 0x10 JUMPI PUSH1 0x0 DUP1 REVERT JUMPDEST POP PUSH1 0x4 CALLDATASIZE LT PUSH2 0x2B JUMPI PUSH1 0x0 CALLDATALOAD PUSH1 0xE0 SHR DUP1 PUSH4 0x1E8E1E13 EQ PUSH2 0x30 JUMPI JUMPDEST PUSH1 0x0 DUP1 REVERT JUMPDEST PUSH2 0x4A PUSH1 0x4 DUP1 CALLDATASIZE SUB DUP2 ADD SWAP1 PUSH2 0x45 SWAP2 SWAP1 PUSH2 0x2C4 JUMP JUMPDEST PUSH2 0x60 JUMP JUMPDEST PUSH1 0x40 MLOAD PUSH2 0x57 SWAP2 SWAP1 PUSH2 0x357 JUMP JUMPDEST PUSH1 0x40 MLOAD DUP1 SWAP2 SUB SWAP1 RETURN JUMPDEST PUSH1 0x0 PUSH1 0x1 SWAP1 POP SWAP3 SWAP2 POP POP JUMP JUMPDEST PUSH1 0x0 PUSH1 0x40 MLOAD SWAP1 POP SWAP1 JUMP JUMPDEST PUSH1 0x0 DUP1 REVERT JUMPDEST PUSH1 0x0 DUP1 REVERT JUMPDEST PUSH1 0x0 DUP1 REVERT JUMPDEST PUSH1 0x0 DUP1 REVERT JUMPDEST PUSH1 0x0 PUSH1 0x1F NOT PUSH1 0x1F DUP4 ADD AND SWAP1 POP SWAP2 SWAP1 POP JUMP JUMPDEST PUSH32 0x4E487B7100000000000000000000000000000000000000000000000000000000 PUSH1 0x0 MSTORE PUSH1 0x41 PUSH1 0x4 MSTORE PUSH1 0x24 PUSH1 0x0 REVERT JUMPDEST PUSH2 0xD3 DUP3 PUSH2 0x8A JUMP JUMPDEST DUP2 ADD DUP2 DUP2 LT PUSH8 0xFFFFFFFFFFFFFFFF DUP3 GT OR ISZERO PUSH2 0xF2 JUMPI PUSH2 0xF1 PUSH2 0x9B JUMP JUMPDEST JUMPDEST DUP1 PUSH1 0x40 MSTORE POP POP POP JUMP JUMPDEST PUSH1 0x0 PUSH2 0x105 PUSH2 0x6C JUMP JUMPDEST SWAP1 POP PUSH2 0x111 DUP3 DUP3 PUSH2 0xCA JUMP JUMPDEST SWAP2 SWAP1 POP JUMP JUMPDEST PUSH1 0x0 PUSH8 0xFFFFFFFFFFFFFFFF DUP3 GT ISZERO PUSH2 0x131 JUMPI PUSH2 0x130 PUSH2 0x9B JUMP JUMPDEST JUMPDEST PUSH2 0x13A DUP3 PUSH2 0x8A JUMP JUMPDEST SWAP1 POP PUSH1 0x20 DUP2 ADD SWAP1 POP SWAP2 SWAP1 POP JUMP JUMPDEST DUP3 DUP2 DUP4 CALLDATACOPY PUSH1 0x0 DUP4 DUP4 ADD MSTORE POP POP POP JUMP JUMPDEST PUSH1 0x0 PUSH2 0x169 PUSH2 0x164 DUP5 PUSH2 0x116 JUMP JUMPDEST PUSH2 0xFB JUMP JUMPDEST SWAP1 POP DUP3 DUP2 MSTORE PUSH1 0x20 DUP2 ADD DUP5 DUP5 DUP5 ADD GT ISZERO PUSH2 0x185 JUMPI PUSH2 0x184 PUSH2 0x85 JUMP JUMPDEST JUMPDEST PUSH2 0x190 DUP5 DUP3 DUP6 PUSH2 0x147 JUMP JUMPDEST POP SWAP4 SWAP3 POP POP POP JUMP JUMPDEST PUSH1 0x0 DUP3 PUSH1 0x1F DUP4 ADD SLT PUSH2 0x1AD JUMPI PUSH2 0x1AC PUSH2 0x80 JUMP JUMPDEST JUMPDEST DUP2 CALLDATALOAD PUSH2 0x1BD DUP5 DUP3 PUSH1 0x20 DUP7 ADD PUSH2 0x156 JUMP JUMPDEST SWAP2 POP POP SWAP3 SWAP2 POP POP JUMP JUMPDEST PUSH1 0x0 PUSH8 0xFFFFFFFFFFFFFFFF DUP3 GT ISZERO PUSH2 0x1E1 JUMPI PUSH2 0x1E0 PUSH2 0x9B JUMP JUMPDEST JUMPDEST PUSH1 0x20 DUP3 MUL SWAP1 POP PUSH1 0x20 DUP2 ADD SWAP1 POP SWAP2 SWAP1 POP JUMP JUMPDEST PUSH1 0x0 DUP1 REVERT JUMPDEST PUSH1 0x0 DUP2 SWAP1 POP SWAP2 SWAP1 POP JUMP JUMPDEST PUSH2 0x20A DUP2 PUSH2 0x1F7 JUMP JUMPDEST DUP2 EQ PUSH2 0x215 JUMPI PUSH1 0x0 DUP1 REVERT JUMPDEST POP JUMP JUMPDEST PUSH1 0x0 DUP2 CALLDATALOAD SWAP1 POP PUSH2 0x227 DUP2 PUSH2 0x201 JUMP JUMPDEST SWAP3 SWAP2 POP POP JUMP JUMPDEST PUSH1 0x0 PUSH2 0x240 PUSH2 0x23B DUP5 PUSH2 0x1C6 JUMP JUMPDEST PUSH2 0xFB JUMP JUMPDEST SWAP1 POP DUP1 DUP4 DUP3 MSTORE PUSH1 0x20 DUP3 ADD SWAP1 POP PUSH1 0x20 DUP5 MUL DUP4 ADD DUP6 DUP2 GT ISZERO PUSH2 0x263 JUMPI PUSH2 0x262 PUSH2 0x1F2 JUMP JUMPDEST JUMPDEST DUP4 JUMPDEST DUP2 DUP2 LT ISZERO PUSH2 0x28C JUMPI DUP1 PUSH2 0x278 DUP9 DUP3 PUSH2 0x218 JUMP JUMPDEST DUP5 MSTORE PUSH1 0x20 DUP5 ADD SWAP4 POP POP PUSH1 0x20 DUP2 ADD SWAP1 POP PUSH2 0x265 JUMP JUMPDEST POP POP POP SWAP4 SWAP3 POP POP POP JUMP JUMPDEST PUSH1 0x0 DUP3 PUSH1 0x1F DUP4 ADD SLT PUSH2 0x2AB JUMPI PUSH2 0x2AA PUSH2 0x80 JUMP JUMPDEST JUMPDEST DUP2 CALLDATALOAD PUSH2 0x2BB DUP5 DUP3 PUSH1 0x20 DUP7 ADD PUSH2 0x22D JUMP JUMPDEST SWAP2 POP POP SWAP3 SWAP2 POP POP JUMP JUMPDEST PUSH1 0x0 DUP1 PUSH1 0x40 DUP4 DUP6 SUB SLT ISZERO PUSH2 0x2DB JUMPI PUSH2 0x2DA PUSH2 0x76 JUMP JUMPDEST JUMPDEST PUSH1 0x0 DUP4 ADD CALLDATALOAD PUSH8 0xFFFFFFFFFFFFFFFF DUP2 GT ISZERO PUSH2 0x2F9 JUMPI PUSH2 0x2F8 PUSH2 0x7B JUMP JUMPDEST JUMPDEST PUSH2 0x305 DUP6 DUP3 DUP7 ADD PUSH2 0x198 JUMP JUMPDEST SWAP3 POP POP PUSH1 0x20 DUP4 ADD CALLDATALOAD PUSH8 0xFFFFFFFFFFFFFFFF DUP2 GT ISZERO PUSH2 0x326 JUMPI PUSH2 0x325 PUSH2 0x7B JUMP JUMPDEST JUMPDEST PUSH2 0x332 DUP6 DUP3 DUP7 ADD PUSH2 0x296 JUMP JUMPDEST SWAP2 POP POP SWAP3 POP SWAP3 SWAP1 POP JUMP JUMPDEST PUSH1 0x0 DUP2 ISZERO ISZERO SWAP1 POP SWAP2 SWAP1 POP JUMP JUMPDEST PUSH2 0x351 DUP2 PUSH2 0x33C JUMP JUMPDEST DUP3 MSTORE POP POP JUMP JUMPDEST PUSH1 0x0 PUSH1 0x20 DUP3 ADD SWAP1 POP PUSH2 0x36C PUSH1 0x0 DUP4 ADD DUP5 PUSH2 0x348 JUMP JUMPDEST SWAP3 SWAP2 POP POP JUMP INVALID LOG2 PUSH5 0x6970667358 0x22 SLT KECCAK256 CALLDATASIZE 0xEF SWAP13 MSTORE8 MSIZE PUSH23 0xFDC0A277C97750244F93A3DF0F753512A02D890C6A7608 PUSH21 0x8E4064736F6C634300081300330000000000000000 "},"methodIdentifiers":{"verifyProof(bytes,uint256[])":"1e8e1e13"}}}}}