{
  "_format": "hh-sol-artifact-1",
  "contractName": "WalletScrubber",
  "sourceName": "contracts/WalletScrubber.sol",
  "abi": [
    {
      "inputs": [
        {
          "internalType": "uint256",
          "name": "_fee",
          "type": "uint256"
        },
        {
          "internalType": "address",
          "name": "_feeRecipient",
          "type": "address"
        }
      ],
      "stateMutability": "nonpayable",
      "type": "constructor"
    },
    {
      "anonymous": false,
      "inputs": [
        {
          "indexed": true,
          "internalType": "address",
          "name": "previousOwner",
          "type": "address"
        },
        {
          "indexed": true,
          "internalType": "address",
          "name": "newOwner",
          "type": "address"
        }
      ],
      "name": "OwnershipTransferred",
      "type": "event"
    },
    {
      "anonymous": false,
      "inputs": [
        {
          "indexed": true,
          "internalType": "address",
          "name": "token",
          "type": "address"
        },
        {
          "indexed": false,
          "internalType": "uint256",
          "name": "amount",
          "type": "uint256"
        }
      ],
      "name": "TokensBurned",
      "type": "event"
    },
    {
      "inputs": [],
      "name": "burnAddress",
      "outputs": [
        {
          "internalType": "address",
          "name": "",
          "type": "address"
        }
      ],
      "stateMutability": "view",
      "type": "function"
    },
    {
      "inputs": [],
      "name": "fee",
      "outputs": [
        {
          "internalType": "uint256",
          "name": "",
          "type": "uint256"
        }
      ],
      "stateMutability": "view",
      "type": "function"
    },
    {
      "inputs": [],
      "name": "feeRecipient",
      "outputs": [
        {
          "internalType": "address",
          "name": "",
          "type": "address"
        }
      ],
      "stateMutability": "view",
      "type": "function"
    },
    {
      "inputs": [],
      "name": "owner",
      "outputs": [
        {
          "internalType": "address",
          "name": "",
          "type": "address"
        }
      ],
      "stateMutability": "view",
      "type": "function"
    },
    {
      "inputs": [],
      "name": "renounceOwnership",
      "outputs": [],
      "stateMutability": "nonpayable",
      "type": "function"
    },
    {
      "inputs": [
        {
          "internalType": "address",
          "name": "token",
          "type": "address"
        }
      ],
      "name": "scrub",
      "outputs": [],
      "stateMutability": "payable",
      "type": "function"
    },
    {
      "inputs": [
        {
          "internalType": "address",
          "name": "_burn",
          "type": "address"
        }
      ],
      "name": "setBurnAddress",
      "outputs": [],
      "stateMutability": "nonpayable",
      "type": "function"
    },
    {
      "inputs": [
        {
          "internalType": "uint256",
          "name": "_fee",
          "type": "uint256"
        }
      ],
      "name": "setFee",
      "outputs": [],
      "stateMutability": "nonpayable",
      "type": "function"
    },
    {
      "inputs": [
        {
          "internalType": "address",
          "name": "_recipient",
          "type": "address"
        }
      ],
      "name": "setFeeRecipient",
      "outputs": [],
      "stateMutability": "nonpayable",
      "type": "function"
    },
    {
      "inputs": [
        {
          "internalType": "address",
          "name": "newOwner",
          "type": "address"
        }
      ],
      "name": "transferOwnership",
      "outputs": [],
      "stateMutability": "nonpayable",
      "type": "function"
    }
  ],
  "bytecode": "0x60806040523480156200001157600080fd5b5060405162000dc638038062000dc683398181016040528101906200003791906200025b565b620000576200004b620000ea60201b60201c565b620000f260201b60201c565b8160018190555080600260006101000a81548173ffffffffffffffffffffffffffffffffffffffff021916908373ffffffffffffffffffffffffffffffffffffffff16021790555061dead600360006101000a81548173ffffffffffffffffffffffffffffffffffffffff021916908373ffffffffffffffffffffffffffffffffffffffff1602179055505050620002a2565b600033905090565b60008060009054906101000a900473ffffffffffffffffffffffffffffffffffffffff169050816000806101000a81548173ffffffffffffffffffffffffffffffffffffffff021916908373ffffffffffffffffffffffffffffffffffffffff1602179055508173ffffffffffffffffffffffffffffffffffffffff168173ffffffffffffffffffffffffffffffffffffffff167f8be0079c531659141344cd1fd0a4f28419497f9722a3daafe3b4186f6b6457e060405160405180910390a35050565b600080fd5b6000819050919050565b620001d081620001bb565b8114620001dc57600080fd5b50565b600081519050620001f081620001c5565b92915050565b600073ffffffffffffffffffffffffffffffffffffffff82169050919050565b60006200022382620001f6565b9050919050565b620002358162000216565b81146200024157600080fd5b50565b60008151905062000255816200022a565b92915050565b60008060408385031215620002755762000274620001b6565b5b60006200028585828601620001df565b9250506020620002988582860162000244565b9150509250929050565b610b1480620002b26000396000f3fe6080604052600436106100915760003560e01c8063715018a611610059578063715018a61461015a5780638da5cb5b14610171578063ddca3f431461019c578063e74b981b146101c7578063f2fde38b146101f057610091565b8063379443861461009657806346904840146100b25780634b0e7216146100dd57806369fe0e2d1461010657806370d5ae051461012f575b600080fd5b6100b060048036038101906100ab91906107af565b610219565b005b3480156100be57600080fd5b506100c7610446565b6040516100d491906107eb565b60405180910390f35b3480156100e957600080fd5b5061010460048036038101906100ff91906107af565b61046c565b005b34801561011257600080fd5b5061012d6004803603810190610128919061083c565b6104b8565b005b34801561013b57600080fd5b506101446104ca565b60405161015191906107eb565b60405180910390f35b34801561016657600080fd5b5061016f6104f0565b005b34801561017d57600080fd5b50610186610504565b60405161019391906107eb565b60405180910390f35b3480156101a857600080fd5b506101b161052d565b6040516101be9190610878565b60405180910390f35b3480156101d357600080fd5b506101ee60048036038101906101e991906107af565b610533565b005b3480156101fc57600080fd5b50610217600480360381019061021291906107af565b61057f565b005b60015434101561025e576040517f08c379a0000000000000000000000000000000000000000000000000000000008152600401610255906108f0565b60405180910390fd5b60008173ffffffffffffffffffffffffffffffffffffffff166370a08231306040518263ffffffff1660e01b815260040161029991906107eb565b602060405180830381865afa1580156102b6573d6000803e3d6000fd5b505050506040513d601f19601f820116820180604052508101906102da9190610925565b90508173ffffffffffffffffffffffffffffffffffffffff1663a9059cbb600360009054906101000a900473ffffffffffffffffffffffffffffffffffffffff16836040518363ffffffff1660e01b8152600401610339929190610952565b6020604051808303816000875af1158015610358573d6000803e3d6000fd5b505050506040513d601f19601f8201168201806040525081019061037c91906109b3565b50600060015411156103f457600260009054906101000a900473ffffffffffffffffffffffffffffffffffffffff1673ffffffffffffffffffffffffffffffffffffffff166108fc6001549081150290604051600060405180830381858888f193505050501580156103f2573d6000803e3d6000fd5b505b8173ffffffffffffffffffffffffffffffffffffffff167ffd38818f5291bf0bb3a2a48aadc06ba8757865d1dabd804585338aab3009dcb68260405161043a9190610878565b60405180910390a25050565b600260009054906101000a900473ffffffffffffffffffffffffffffffffffffffff1681565b610474610602565b80600360006101000a81548173ffffffffffffffffffffffffffffffffffffffff021916908373ffffffffffffffffffffffffffffffffffffffff16021790555050565b6104c0610602565b8060018190555050565b600360009054906101000a900473ffffffffffffffffffffffffffffffffffffffff1681565b6104f8610602565b6105026000610680565b565b60008060009054906101000a900473ffffffffffffffffffffffffffffffffffffffff16905090565b60015481565b61053b610602565b80600260006101000a81548173ffffffffffffffffffffffffffffffffffffffff021916908373ffffffffffffffffffffffffffffffffffffffff16021790555050565b610587610602565b600073ffffffffffffffffffffffffffffffffffffffff168173ffffffffffffffffffffffffffffffffffffffff16036105f6576040517f08c379a00000000000000000000000000000000000000000000000000000000081526004016105ed90610a52565b60405180910390fd5b6105ff81610680565b50565b61060a610744565b73ffffffffffffffffffffffffffffffffffffffff16610628610504565b73ffffffffffffffffffffffffffffffffffffffff161461067e576040517f08c379a000000000000000000000000000000000000000000000000000000000815260040161067590610abe565b60405180910390fd5b565b60008060009054906101000a900473ffffffffffffffffffffffffffffffffffffffff169050816000806101000a81548173ffffffffffffffffffffffffffffffffffffffff021916908373ffffffffffffffffffffffffffffffffffffffff1602179055508173ffffffffffffffffffffffffffffffffffffffff168173ffffffffffffffffffffffffffffffffffffffff167f8be0079c531659141344cd1fd0a4f28419497f9722a3daafe3b4186f6b6457e060405160405180910390a35050565b600033905090565b600080fd5b600073ffffffffffffffffffffffffffffffffffffffff82169050919050565b600061077c82610751565b9050919050565b61078c81610771565b811461079757600080fd5b50565b6000813590506107a981610783565b92915050565b6000602082840312156107c5576107c461074c565b5b60006107d38482850161079a565b91505092915050565b6107e581610771565b82525050565b600060208201905061080060008301846107dc565b92915050565b6000819050919050565b61081981610806565b811461082457600080fd5b50565b60008135905061083681610810565b92915050565b6000602082840312156108525761085161074c565b5b600061086084828501610827565b91505092915050565b61087281610806565b82525050565b600060208201905061088d6000830184610869565b92915050565b600082825260208201905092915050565b7f6665650000000000000000000000000000000000000000000000000000000000600082015250565b60006108da600383610893565b91506108e5826108a4565b602082019050919050565b60006020820190508181036000830152610909816108cd565b9050919050565b60008151905061091f81610810565b92915050565b60006020828403121561093b5761093a61074c565b5b600061094984828501610910565b91505092915050565b600060408201905061096760008301856107dc565b6109746020830184610869565b9392505050565b60008115159050919050565b6109908161097b565b811461099b57600080fd5b50565b6000815190506109ad81610987565b92915050565b6000602082840312156109c9576109c861074c565b5b60006109d78482850161099e565b91505092915050565b7f4f776e61626c653a206e6577206f776e657220697320746865207a65726f206160008201527f6464726573730000000000000000000000000000000000000000000000000000602082015250565b6000610a3c602683610893565b9150610a47826109e0565b604082019050919050565b60006020820190508181036000830152610a6b81610a2f565b9050919050565b7f4f776e61626c653a2063616c6c6572206973206e6f7420746865206f776e6572600082015250565b6000610aa8602083610893565b9150610ab382610a72565b602082019050919050565b60006020820190508181036000830152610ad781610a9b565b905091905056fea2646970667358221220ffc9fad50a533821109182684d5dac37c2b992223c6362dba7a05a8a10a4b0dd64736f6c63430008130033",
  "linkReferences": {},
  "deployedLinkReferences": {}
}