{
  "_format": "hh-sol-artifact-1",
  "contractName": "ZkSend",
  "sourceName": "contracts/ZkSend.sol",
  "abi": [
    {
      "inputs": [
        {
          "internalType": "uint256",
          "name": "_fee",
          "type": "uint256"
        },
        {
          "internalType": "address",
          "name": "_feeRecipient",
          "type": "address"
        },
        {
          "internalType": "address",
          "name": "_verifier",
          "type": "address"
        }
      ],
      "stateMutability": "nonpayable",
      "type": "constructor"
    },
    {
      "anonymous": false,
      "inputs": [
        {
          "indexed": true,
          "internalType": "bytes32",
          "name": "commitment",
          "type": "bytes32"
        },
        {
          "indexed": true,
          "internalType": "address",
          "name": "token",
          "type": "address"
        },
        {
          "indexed": false,
          "internalType": "uint256",
          "name": "amount",
          "type": "uint256"
        }
      ],
      "name": "Deposit",
      "type": "event"
    },
    {
      "anonymous": false,
      "inputs": [
        {
          "indexed": true,
          "internalType": "address",
          "name": "previousOwner",
          "type": "address"
        },
        {
          "indexed": true,
          "internalType": "address",
          "name": "newOwner",
          "type": "address"
        }
      ],
      "name": "OwnershipTransferred",
      "type": "event"
    },
    {
      "anonymous": false,
      "inputs": [
        {
          "indexed": true,
          "internalType": "bytes32",
          "name": "nullifier",
          "type": "bytes32"
        },
        {
          "indexed": true,
          "internalType": "address",
          "name": "recipient",
          "type": "address"
        },
        {
          "indexed": true,
          "internalType": "address",
          "name": "token",
          "type": "address"
        },
        {
          "indexed": false,
          "internalType": "uint256",
          "name": "amount",
          "type": "uint256"
        }
      ],
      "name": "Withdrawal",
      "type": "event"
    },
    {
      "inputs": [
        {
          "internalType": "bytes32",
          "name": "",
          "type": "bytes32"
        }
      ],
      "name": "commitments",
      "outputs": [
        {
          "internalType": "bool",
          "name": "",
          "type": "bool"
        }
      ],
      "stateMutability": "view",
      "type": "function"
    },
    {
      "inputs": [
        {
          "internalType": "address",
          "name": "token",
          "type": "address"
        },
        {
          "internalType": "uint256",
          "name": "amount",
          "type": "uint256"
        },
        {
          "internalType": "bytes32",
          "name": "commitment",
          "type": "bytes32"
        }
      ],
      "name": "deposit",
      "outputs": [],
      "stateMutability": "payable",
      "type": "function"
    },
    {
      "inputs": [],
      "name": "fee",
      "outputs": [
        {
          "internalType": "uint256",
          "name": "",
          "type": "uint256"
        }
      ],
      "stateMutability": "view",
      "type": "function"
    },
    {
      "inputs": [],
      "name": "feeRecipient",
      "outputs": [
        {
          "internalType": "address",
          "name": "",
          "type": "address"
        }
      ],
      "stateMutability": "view",
      "type": "function"
    },
    {
      "inputs": [
        {
          "internalType": "bytes32",
          "name": "",
          "type": "bytes32"
        }
      ],
      "name": "nullifierHashes",
      "outputs": [
        {
          "internalType": "bool",
          "name": "",
          "type": "bool"
        }
      ],
      "stateMutability": "view",
      "type": "function"
    },
    {
      "inputs": [],
      "name": "owner",
      "outputs": [
        {
          "internalType": "address",
          "name": "",
          "type": "address"
        }
      ],
      "stateMutability": "view",
      "type": "function"
    },
    {
      "inputs": [],
      "name": "renounceOwnership",
      "outputs": [],
      "stateMutability": "nonpayable",
      "type": "function"
    },
    {
      "inputs": [
        {
          "internalType": "uint256",
          "name": "_fee",
          "type": "uint256"
        }
      ],
      "name": "setFee",
      "outputs": [],
      "stateMutability": "nonpayable",
      "type": "function"
    },
    {
      "inputs": [
        {
          "internalType": "address",
          "name": "_recipient",
          "type": "address"
        }
      ],
      "name": "setFeeRecipient",
      "outputs": [],
      "stateMutability": "nonpayable",
      "type": "function"
    },
    {
      "inputs": [
        {
          "internalType": "address",
          "name": "_verifier",
          "type": "address"
        }
      ],
      "name": "setVerifier",
      "outputs": [],
      "stateMutability": "nonpayable",
      "type": "function"
    },
    {
      "inputs": [
        {
          "internalType": "address",
          "name": "newOwner",
          "type": "address"
        }
      ],
      "name": "transferOwnership",
      "outputs": [],
      "stateMutability": "nonpayable",
      "type": "function"
    },
    {
      "inputs": [],
      "name": "verifier",
      "outputs": [
        {
          "internalType": "contract IVerifier",
          "name": "",
          "type": "address"
        }
      ],
      "stateMutability": "view",
      "type": "function"
    },
    {
      "inputs": [
        {
          "internalType": "bytes",
          "name": "proof",
          "type": "bytes"
        },
        {
          "internalType": "uint256[]",
          "name": "pubSignals",
          "type": "uint256[]"
        },
        {
          "internalType": "bytes32",
          "name": "nullifier",
          "type": "bytes32"
        },
        {
          "internalType": "address",
          "name": "recipient",
          "type": "address"
        },
        {
          "internalType": "address",
          "name": "token",
          "type": "address"
        },
        {
          "internalType": "uint256",
          "name": "amount",
          "type": "uint256"
        }
      ],
      "name": "withdraw",
      "outputs": [],
      "stateMutability": "nonpayable",
      "type": "function"
    }
  ],
  "bytecode": "0x60806040523480156200001157600080fd5b50604051620019f9380380620019f983398181016040528101906200003791906200025a565b620000576200004b620000e960201b60201c565b620000f160201b60201c565b8260018190555081600260006101000a81548173ffffffffffffffffffffffffffffffffffffffff021916908373ffffffffffffffffffffffffffffffffffffffff16021790555080600360006101000a81548173ffffffffffffffffffffffffffffffffffffffff021916908373ffffffffffffffffffffffffffffffffffffffff160217905550505050620002b6565b600033905090565b60008060009054906101000a900473ffffffffffffffffffffffffffffffffffffffff169050816000806101000a81548173ffffffffffffffffffffffffffffffffffffffff021916908373ffffffffffffffffffffffffffffffffffffffff1602179055508173ffffffffffffffffffffffffffffffffffffffff168173ffffffffffffffffffffffffffffffffffffffff167f8be0079c531659141344cd1fd0a4f28419497f9722a3daafe3b4186f6b6457e060405160405180910390a35050565b600080fd5b6000819050919050565b620001cf81620001ba565b8114620001db57600080fd5b50565b600081519050620001ef81620001c4565b92915050565b600073ffffffffffffffffffffffffffffffffffffffff82169050919050565b60006200022282620001f5565b9050919050565b620002348162000215565b81146200024057600080fd5b50565b600081519050620002548162000229565b92915050565b600080600060608486031215620002765762000275620001b5565b5b60006200028686828701620001de565b9350506020620002998682870162000243565b9250506040620002ac8682870162000243565b9150509250925092565b61173380620002c66000396000f3fe6080604052600436106100c25760003560e01c806369fe0e2d1161007f5780638da5cb5b116100595780638da5cb5b14610245578063ddca3f4314610270578063e74b981b1461029b578063f2fde38b146102c4576100c2565b806369fe0e2d146101c8578063715018a6146101f1578063839df94514610208576100c2565b806317cc915c146100c7578063193de2991461010457806326b3293f1461012d5780632b7ac3f31461014957806346904840146101745780635437988d1461019f575b600080fd5b3480156100d357600080fd5b506100ee60048036038101906100e99190610bfd565b6102ed565b6040516100fb9190610c45565b60405180910390f35b34801561011057600080fd5b5061012b60048036038101906101269190610f02565b61030d565b005b61014760048036038101906101429190610fc7565b6105e5565b005b34801561015557600080fd5b5061015e61088d565b60405161016b9190611079565b60405180910390f35b34801561018057600080fd5b506101896108b3565b60405161019691906110a3565b60405180910390f35b3480156101ab57600080fd5b506101c660048036038101906101c191906110be565b6108d9565b005b3480156101d457600080fd5b506101ef60048036038101906101ea91906110eb565b610925565b005b3480156101fd57600080fd5b50610206610937565b005b34801561021457600080fd5b5061022f600480360381019061022a9190610bfd565b61094b565b60405161023c9190610c45565b60405180910390f35b34801561025157600080fd5b5061025a61096b565b60405161026791906110a3565b60405180910390f35b34801561027c57600080fd5b50610285610994565b6040516102929190611127565b60405180910390f35b3480156102a757600080fd5b506102c260048036038101906102bd91906110be565b61099a565b005b3480156102d057600080fd5b506102eb60048036038101906102e691906110be565b6109e6565b005b60056020528060005260406000206000915054906101000a900460ff1681565b6005600085815260200190815260200160002060009054906101000a900460ff161561036e576040517f08c379a00000000000000000000000000000000000000000000000000000000081526004016103659061119f565b60405180910390fd5b600360009054906101000a900473ffffffffffffffffffffffffffffffffffffffff1673ffffffffffffffffffffffffffffffffffffffff16631e8e1e1387876040518363ffffffff1660e01b81526004016103cb9291906112fc565b602060405180830381865afa1580156103e8573d6000803e3d6000fd5b505050506040513d601f19601f8201168201806040525081019061040c919061135f565b61044b576040517f08c379a0000000000000000000000000000000000000000000000000000000008152600401610442906113d8565b60405180910390fd5b60016005600086815260200190815260200160002060006101000a81548160ff021916908315150217905550600073ffffffffffffffffffffffffffffffffffffffff168273ffffffffffffffffffffffffffffffffffffffff16036104f7578273ffffffffffffffffffffffffffffffffffffffff166108fc829081150290604051600060405180830381858888f193505050501580156104f1573d6000803e3d6000fd5b50610577565b8173ffffffffffffffffffffffffffffffffffffffff1663a9059cbb84836040518363ffffffff1660e01b81526004016105329291906113f8565b6020604051808303816000875af1158015610551573d6000803e3d6000fd5b505050506040513d601f19601f82011682018060405250810190610575919061135f565b505b8173ffffffffffffffffffffffffffffffffffffffff168373ffffffffffffffffffffffffffffffffffffffff16857f6c3a45613039e0a1117bd6ce110ab3c920271709c010983d921a2cd268e2ea47846040516105d59190611127565b60405180910390a4505050505050565b6004600082815260200190815260200160002060009054906101000a900460ff1615610646576040517f08c379a000000000000000000000000000000000000000000000000000000000815260040161063d9061146d565b60405180910390fd5b600073ffffffffffffffffffffffffffffffffffffffff168373ffffffffffffffffffffffffffffffffffffffff16036106cf576001548261068891906114bc565b3410156106ca576040517f08c379a00000000000000000000000000000000000000000000000000000000081526004016106c19061153c565b60405180910390fd5b610796565b600154341015610714576040517f08c379a000000000000000000000000000000000000000000000000000000000815260040161070b906115a8565b60405180910390fd5b8273ffffffffffffffffffffffffffffffffffffffff166323b872dd3330856040518463ffffffff1660e01b8152600401610751939291906115c8565b6020604051808303816000875af1158015610770573d6000803e3d6000fd5b505050506040513d601f19601f82011682018060405250810190610794919061135f565b505b60016004600083815260200190815260200160002060006101000a81548160ff0219169083151502179055506000600154111561083957600260009054906101000a900473ffffffffffffffffffffffffffffffffffffffff1673ffffffffffffffffffffffffffffffffffffffff166108fc6001549081150290604051600060405180830381858888f19350505050158015610837573d6000803e3d6000fd5b505b8273ffffffffffffffffffffffffffffffffffffffff16817f182fa52899142d44ff5c45a6354d3b3e868d5b07db6a65580b39bd321bdaf8ac846040516108809190611127565b60405180910390a3505050565b600360009054906101000a900473ffffffffffffffffffffffffffffffffffffffff1681565b600260009054906101000a900473ffffffffffffffffffffffffffffffffffffffff1681565b6108e1610a69565b80600360006101000a81548173ffffffffffffffffffffffffffffffffffffffff021916908373ffffffffffffffffffffffffffffffffffffffff16021790555050565b61092d610a69565b8060018190555050565b61093f610a69565b6109496000610ae7565b565b60046020528060005260406000206000915054906101000a900460ff1681565b60008060009054906101000a900473ffffffffffffffffffffffffffffffffffffffff16905090565b60015481565b6109a2610a69565b80600260006101000a81548173ffffffffffffffffffffffffffffffffffffffff021916908373ffffffffffffffffffffffffffffffffffffffff16021790555050565b6109ee610a69565b600073ffffffffffffffffffffffffffffffffffffffff168173ffffffffffffffffffffffffffffffffffffffff1603610a5d576040517f08c379a0000000000000000000000000000000000000000000000000000000008152600401610a5490611671565b60405180910390fd5b610a6681610ae7565b50565b610a71610bab565b73ffffffffffffffffffffffffffffffffffffffff16610a8f61096b565b73ffffffffffffffffffffffffffffffffffffffff1614610ae5576040517f08c379a0000000000000000000000000000000000000000000000000000000008152600401610adc906116dd565b60405180910390fd5b565b60008060009054906101000a900473ffffffffffffffffffffffffffffffffffffffff169050816000806101000a81548173ffffffffffffffffffffffffffffffffffffffff021916908373ffffffffffffffffffffffffffffffffffffffff1602179055508173ffffffffffffffffffffffffffffffffffffffff168173ffffffffffffffffffffffffffffffffffffffff167f8be0079c531659141344cd1fd0a4f28419497f9722a3daafe3b4186f6b6457e060405160405180910390a35050565b600033905090565b6000604051905090565b600080fd5b600080fd5b6000819050919050565b610bda81610bc7565b8114610be557600080fd5b50565b600081359050610bf781610bd1565b92915050565b600060208284031215610c1357610c12610bbd565b5b6000610c2184828501610be8565b91505092915050565b60008115159050919050565b610c3f81610c2a565b82525050565b6000602082019050610c5a6000830184610c36565b92915050565b600080fd5b600080fd5b6000601f19601f8301169050919050565b7f4e487b7100000000000000000000000000000000000000000000000000000000600052604160045260246000fd5b610cb382610c6a565b810181811067ffffffffffffffff82111715610cd257610cd1610c7b565b5b80604052505050565b6000610ce5610bb3565b9050610cf18282610caa565b919050565b600067ffffffffffffffff821115610d1157610d10610c7b565b5b610d1a82610c6a565b9050602081019050919050565b82818337600083830152505050565b6000610d49610d4484610cf6565b610cdb565b905082815260208101848484011115610d6557610d64610c65565b5b610d70848285610d27565b509392505050565b600082601f830112610d8d57610d8c610c60565b5b8135610d9d848260208601610d36565b91505092915050565b600067ffffffffffffffff821115610dc157610dc0610c7b565b5b602082029050602081019050919050565b600080fd5b6000819050919050565b610dea81610dd7565b8114610df557600080fd5b50565b600081359050610e0781610de1565b92915050565b6000610e20610e1b84610da6565b610cdb565b90508083825260208201905060208402830185811115610e4357610e42610dd2565b5b835b81811015610e6c5780610e588882610df8565b845260208401935050602081019050610e45565b5050509392505050565b600082601f830112610e8b57610e8a610c60565b5b8135610e9b848260208601610e0d565b91505092915050565b600073ffffffffffffffffffffffffffffffffffffffff82169050919050565b6000610ecf82610ea4565b9050919050565b610edf81610ec4565b8114610eea57600080fd5b50565b600081359050610efc81610ed6565b92915050565b60008060008060008060c08789031215610f1f57610f1e610bbd565b5b600087013567ffffffffffffffff811115610f3d57610f3c610bc2565b5b610f4989828a01610d78565b965050602087013567ffffffffffffffff811115610f6a57610f69610bc2565b5b610f7689828a01610e76565b9550506040610f8789828a01610be8565b9450506060610f9889828a01610eed565b9350506080610fa989828a01610eed565b92505060a0610fba89828a01610df8565b9150509295509295509295565b600080600060608486031215610fe057610fdf610bbd565b5b6000610fee86828701610eed565b9350506020610fff86828701610df8565b925050604061101086828701610be8565b9150509250925092565b6000819050919050565b600061103f61103a61103584610ea4565b61101a565b610ea4565b9050919050565b600061105182611024565b9050919050565b600061106382611046565b9050919050565b61107381611058565b82525050565b600060208201905061108e600083018461106a565b92915050565b61109d81610ec4565b82525050565b60006020820190506110b86000830184611094565b92915050565b6000602082840312156110d4576110d3610bbd565b5b60006110e284828501610eed565b91505092915050565b60006020828403121561110157611100610bbd565b5b600061110f84828501610df8565b91505092915050565b61112181610dd7565b82525050565b600060208201905061113c6000830184611118565b92915050565b600082825260208201905092915050565b7f6e756c6c69666965722075736564000000000000000000000000000000000000600082015250565b6000611189600e83611142565b915061119482611153565b602082019050919050565b600060208201905081810360008301526111b88161117c565b9050919050565b600081519050919050565b600082825260208201905092915050565b60005b838110156111f95780820151818401526020810190506111de565b60008484015250505050565b6000611210826111bf565b61121a81856111ca565b935061122a8185602086016111db565b61123381610c6a565b840191505092915050565b600081519050919050565b600082825260208201905092915050565b6000819050602082019050919050565b61127381610dd7565b82525050565b6000611285838361126a565b60208301905092915050565b6000602082019050919050565b60006112a98261123e565b6112b38185611249565b93506112be8361125a565b8060005b838110156112ef5781516112d68882611279565b97506112e183611291565b9250506001810190506112c2565b5085935050505092915050565b600060408201905081810360008301526113168185611205565b9050818103602083015261132a818461129e565b90509392505050565b61133c81610c2a565b811461134757600080fd5b50565b60008151905061135981611333565b92915050565b60006020828403121561137557611374610bbd565b5b60006113838482850161134a565b91505092915050565b7f6261642070726f6f660000000000000000000000000000000000000000000000600082015250565b60006113c2600983611142565b91506113cd8261138c565b602082019050919050565b600060208201905081810360008301526113f1816113b5565b9050919050565b600060408201905061140d6000830185611094565b61141a6020830184611118565b9392505050565b7f636f6d6d69742075736564000000000000000000000000000000000000000000600082015250565b6000611457600b83611142565b915061146282611421565b602082019050919050565b600060208201905081810360008301526114868161144a565b9050919050565b7f4e487b7100000000000000000000000000000000000000000000000000000000600052601160045260246000fd5b60006114c782610dd7565b91506114d283610dd7565b92508282019050808211156114ea576114e961148d565b5b92915050565b7f696e737566662045544800000000000000000000000000000000000000000000600082015250565b6000611526600a83611142565b9150611531826114f0565b602082019050919050565b6000602082019050818103600083015261155581611519565b9050919050565b7f696e737566662066656500000000000000000000000000000000000000000000600082015250565b6000611592600a83611142565b915061159d8261155c565b602082019050919050565b600060208201905081810360008301526115c181611585565b9050919050565b60006060820190506115dd6000830186611094565b6115ea6020830185611094565b6115f76040830184611118565b949350505050565b7f4f776e61626c653a206e6577206f776e657220697320746865207a65726f206160008201527f6464726573730000000000000000000000000000000000000000000000000000602082015250565b600061165b602683611142565b9150611666826115ff565b604082019050919050565b6000602082019050818103600083015261168a8161164e565b9050919050565b7f4f776e61626c653a2063616c6c6572206973206e6f7420746865206f776e6572600082015250565b60006116c7602083611142565b91506116d282611691565b602082019050919050565b600060208201905081810360008301526116f6816116ba565b905091905056fea26469706673582212204e53c6141f0614d6ab6aa57636c5017e1123f532afb8ed14cb2acbeb3fe7a0f864736f6c63430008130033",
  "linkReferences": {},
  "deployedLinkReferences": {}
}