{
  "_format": "hh-sol-artifact-1",
  "contractName": "GiftLinkFactory",
  "sourceName": "contracts/GiftLinkFactory.sol",
  "abi": [
    {
      "inputs": [
        {
          "internalType": "uint256",
          "name": "_fee",
          "type": "uint256"
        },
        {
          "internalType": "address",
          "name": "_feeRecipient",
          "type": "address"
        }
      ],
      "stateMutability": "nonpayable",
      "type": "constructor"
    },
    {
      "anonymous": false,
      "inputs": [
        {
          "indexed": true,
          "internalType": "bytes32",
          "name": "hash",
          "type": "bytes32"
        },
        {
          "indexed": true,
          "internalType": "address",
          "name": "to",
          "type": "address"
        }
      ],
      "name": "GiftClaimed",
      "type": "event"
    },
    {
      "anonymous": false,
      "inputs": [
        {
          "indexed": true,
          "internalType": "bytes32",
          "name": "hash",
          "type": "bytes32"
        },
        {
          "indexed": false,
          "internalType": "address",
          "name": "token",
          "type": "address"
        },
        {
          "indexed": false,
          "internalType": "uint256",
          "name": "amount",
          "type": "uint256"
        },
        {
          "indexed": false,
          "internalType": "uint256",
          "name": "expiry",
          "type": "uint256"
        }
      ],
      "name": "GiftCreated",
      "type": "event"
    },
    {
      "anonymous": false,
      "inputs": [
        {
          "indexed": true,
          "internalType": "address",
          "name": "previousOwner",
          "type": "address"
        },
        {
          "indexed": true,
          "internalType": "address",
          "name": "newOwner",
          "type": "address"
        }
      ],
      "name": "OwnershipTransferred",
      "type": "event"
    },
    {
      "inputs": [
        {
          "internalType": "bytes32",
          "name": "secret",
          "type": "bytes32"
        },
        {
          "internalType": "address",
          "name": "to",
          "type": "address"
        }
      ],
      "name": "claim",
      "outputs": [],
      "stateMutability": "nonpayable",
      "type": "function"
    },
    {
      "inputs": [
        {
          "internalType": "address",
          "name": "token",
          "type": "address"
        },
        {
          "internalType": "uint256",
          "name": "amount",
          "type": "uint256"
        },
        {
          "internalType": "bytes32",
          "name": "secretHash",
          "type": "bytes32"
        },
        {
          "internalType": "uint256",
          "name": "expiry",
          "type": "uint256"
        }
      ],
      "name": "createGift",
      "outputs": [],
      "stateMutability": "payable",
      "type": "function"
    },
    {
      "inputs": [],
      "name": "fee",
      "outputs": [
        {
          "internalType": "uint256",
          "name": "",
          "type": "uint256"
        }
      ],
      "stateMutability": "view",
      "type": "function"
    },
    {
      "inputs": [],
      "name": "feeRecipient",
      "outputs": [
        {
          "internalType": "address",
          "name": "",
          "type": "address"
        }
      ],
      "stateMutability": "view",
      "type": "function"
    },
    {
      "inputs": [
        {
          "internalType": "bytes32",
          "name": "",
          "type": "bytes32"
        }
      ],
      "name": "giftLinks",
      "outputs": [
        {
          "internalType": "address",
          "name": "token",
          "type": "address"
        },
        {
          "internalType": "uint256",
          "name": "amount",
          "type": "uint256"
        },
        {
          "internalType": "uint256",
          "name": "expiry",
          "type": "uint256"
        },
        {
          "internalType": "bool",
          "name": "claimed",
          "type": "bool"
        }
      ],
      "stateMutability": "view",
      "type": "function"
    },
    {
      "inputs": [],
      "name": "owner",
      "outputs": [
        {
          "internalType": "address",
          "name": "",
          "type": "address"
        }
      ],
      "stateMutability": "view",
      "type": "function"
    },
    {
      "inputs": [],
      "name": "renounceOwnership",
      "outputs": [],
      "stateMutability": "nonpayable",
      "type": "function"
    },
    {
      "inputs": [
        {
          "internalType": "uint256",
          "name": "newFee",
          "type": "uint256"
        }
      ],
      "name": "setFee",
      "outputs": [],
      "stateMutability": "nonpayable",
      "type": "function"
    },
    {
      "inputs": [
        {
          "internalType": "address",
          "name": "newFeeRecipient",
          "type": "address"
        }
      ],
      "name": "setFeeRecipient",
      "outputs": [],
      "stateMutability": "nonpayable",
      "type": "function"
    },
    {
      "inputs": [
        {
          "internalType": "address",
          "name": "newOwner",
          "type": "address"
        }
      ],
      "name": "transferOwnership",
      "outputs": [],
      "stateMutability": "nonpayable",
      "type": "function"
    }
  ],
  "bytecode": "0x60806040523480156200001157600080fd5b506040516200150a3803806200150a833981810160405281019062000037919062000229565b620000576200004b620000b860201b60201c565b620000c060201b60201c565b6200006833620000c060201b60201c565b8160018190555080600260006101000a81548173ffffffffffffffffffffffffffffffffffffffff021916908373ffffffffffffffffffffffffffffffffffffffff160217905550505062000270565b600033905090565b60008060009054906101000a900473ffffffffffffffffffffffffffffffffffffffff169050816000806101000a81548173ffffffffffffffffffffffffffffffffffffffff021916908373ffffffffffffffffffffffffffffffffffffffff1602179055508173ffffffffffffffffffffffffffffffffffffffff168173ffffffffffffffffffffffffffffffffffffffff167f8be0079c531659141344cd1fd0a4f28419497f9722a3daafe3b4186f6b6457e060405160405180910390a35050565b600080fd5b6000819050919050565b6200019e8162000189565b8114620001aa57600080fd5b50565b600081519050620001be8162000193565b92915050565b600073ffffffffffffffffffffffffffffffffffffffff82169050919050565b6000620001f182620001c4565b9050919050565b6200020381620001e4565b81146200020f57600080fd5b50565b6000815190506200022381620001f8565b92915050565b6000806040838503121562000243576200024262000184565b5b60006200025385828601620001ad565b9250506020620002668582860162000212565b9150509250929050565b61128a80620002806000396000f3fe6080604052600436106100915760003560e01c8063bb8e1def11610059578063bb8e1def14610155578063ddca3f4314610195578063e74b981b146101c0578063e7b57b29146101e9578063f2fde38b1461020557610091565b8063469048401461009657806369fe0e2d146100c1578063715018a6146100ea5780638da5cb5b1461010157806396c144f01461012c575b600080fd5b3480156100a257600080fd5b506100ab61022e565b6040516100b89190610b2a565b60405180910390f35b3480156100cd57600080fd5b506100e860048036038101906100e39190610b80565b610254565b005b3480156100f657600080fd5b506100ff610266565b005b34801561010d57600080fd5b5061011661027a565b6040516101239190610b2a565b60405180910390f35b34801561013857600080fd5b50610153600480360381019061014e9190610c0f565b6102a3565b005b34801561016157600080fd5b5061017c60048036038101906101779190610c4f565b6104fe565b60405161018c9493929190610ca6565b60405180910390f35b3480156101a157600080fd5b506101aa61055b565b6040516101b79190610ceb565b60405180910390f35b3480156101cc57600080fd5b506101e760048036038101906101e29190610d06565b610561565b005b61020360048036038101906101fe9190610d33565b6105ad565b005b34801561021157600080fd5b5061022c60048036038101906102279190610d06565b61091c565b005b600260009054906101000a900473ffffffffffffffffffffffffffffffffffffffff1681565b61025c61099f565b8060018190555050565b61026e61099f565b6102786000610a1d565b565b60008060009054906101000a900473ffffffffffffffffffffffffffffffffffffffff16905090565b6000826040516020016102b69190610dbb565b60405160208183030381529060405280519060200120905060006003600083815260200190815260200160002090508060030160009054906101000a900460ff16158015610308575042816002015410155b610347576040517f08c379a000000000000000000000000000000000000000000000000000000000815260040161033e90610e33565b60405180910390fd5b60018160030160006101000a81548160ff021916908315150217905550600073ffffffffffffffffffffffffffffffffffffffff168160000160009054906101000a900473ffffffffffffffffffffffffffffffffffffffff1673ffffffffffffffffffffffffffffffffffffffff160361040c578273ffffffffffffffffffffffffffffffffffffffff166108fc82600101549081150290604051600060405180830381858888f19350505050158015610406573d6000803e3d6000fd5b506104b4565b8060000160009054906101000a900473ffffffffffffffffffffffffffffffffffffffff1673ffffffffffffffffffffffffffffffffffffffff1663a9059cbb8483600101546040518363ffffffff1660e01b815260040161046f929190610e53565b6020604051808303816000875af115801561048e573d6000803e3d6000fd5b505050506040513d601f19601f820116820180604052508101906104b29190610ea8565b505b8273ffffffffffffffffffffffffffffffffffffffff16827f360aefe28e0ec1a42bc00890806c72a6348292e4731061ed8cba2f91ed04623a60405160405180910390a350505050565b60036020528060005260406000206000915090508060000160009054906101000a900473ffffffffffffffffffffffffffffffffffffffff16908060010154908060020154908060030160009054906101000a900460ff16905084565b60015481565b61056961099f565b80600260006101000a81548173ffffffffffffffffffffffffffffffffffffffff021916908373ffffffffffffffffffffffffffffffffffffffff16021790555050565b6000600360008481526020019081526020016000206002015414610606576040517f08c379a00000000000000000000000000000000000000000000000000000000081526004016105fd90610f21565b60405180910390fd5b428111610648576040517f08c379a000000000000000000000000000000000000000000000000000000000815260040161063f90610f8d565b60405180910390fd5b600073ffffffffffffffffffffffffffffffffffffffff168473ffffffffffffffffffffffffffffffffffffffff16036106d1576001548361068a9190610fdc565b3410156106cc576040517f08c379a00000000000000000000000000000000000000000000000000000000081526004016106c39061105c565b60405180910390fd5b610798565b600154341015610716576040517f08c379a000000000000000000000000000000000000000000000000000000000815260040161070d906110c8565b60405180910390fd5b8373ffffffffffffffffffffffffffffffffffffffff166323b872dd3330866040518463ffffffff1660e01b8152600401610753939291906110e8565b6020604051808303816000875af1158015610772573d6000803e3d6000fd5b505050506040513d601f19601f820116820180604052508101906107969190610ea8565b505b60405180608001604052808573ffffffffffffffffffffffffffffffffffffffff168152602001848152602001828152602001600015158152506003600084815260200190815260200160002060008201518160000160006101000a81548173ffffffffffffffffffffffffffffffffffffffff021916908373ffffffffffffffffffffffffffffffffffffffff160217905550602082015181600101556040820151816002015560608201518160030160006101000a81548160ff021916908315150217905550905050600060015411156108da57600260009054906101000a900473ffffffffffffffffffffffffffffffffffffffff1673ffffffffffffffffffffffffffffffffffffffff166108fc6001549081150290604051600060405180830381858888f193505050501580156108d8573d6000803e3d6000fd5b505b817f3648494475af96469753246dad0ac299df5a99f8a93542c8727c5073e4c4a00385858460405161090e9392919061111f565b60405180910390a250505050565b61092461099f565b600073ffffffffffffffffffffffffffffffffffffffff168173ffffffffffffffffffffffffffffffffffffffff1603610993576040517f08c379a000000000000000000000000000000000000000000000000000000000815260040161098a906111c8565b60405180910390fd5b61099c81610a1d565b50565b6109a7610ae1565b73ffffffffffffffffffffffffffffffffffffffff166109c561027a565b73ffffffffffffffffffffffffffffffffffffffff1614610a1b576040517f08c379a0000000000000000000000000000000000000000000000000000000008152600401610a1290611234565b60405180910390fd5b565b60008060009054906101000a900473ffffffffffffffffffffffffffffffffffffffff169050816000806101000a81548173ffffffffffffffffffffffffffffffffffffffff021916908373ffffffffffffffffffffffffffffffffffffffff1602179055508173ffffffffffffffffffffffffffffffffffffffff168173ffffffffffffffffffffffffffffffffffffffff167f8be0079c531659141344cd1fd0a4f28419497f9722a3daafe3b4186f6b6457e060405160405180910390a35050565b600033905090565b600073ffffffffffffffffffffffffffffffffffffffff82169050919050565b6000610b1482610ae9565b9050919050565b610b2481610b09565b82525050565b6000602082019050610b3f6000830184610b1b565b92915050565b600080fd5b6000819050919050565b610b5d81610b4a565b8114610b6857600080fd5b50565b600081359050610b7a81610b54565b92915050565b600060208284031215610b9657610b95610b45565b5b6000610ba484828501610b6b565b91505092915050565b6000819050919050565b610bc081610bad565b8114610bcb57600080fd5b50565b600081359050610bdd81610bb7565b92915050565b610bec81610b09565b8114610bf757600080fd5b50565b600081359050610c0981610be3565b92915050565b60008060408385031215610c2657610c25610b45565b5b6000610c3485828601610bce565b9250506020610c4585828601610bfa565b9150509250929050565b600060208284031215610c6557610c64610b45565b5b6000610c7384828501610bce565b91505092915050565b610c8581610b4a565b82525050565b60008115159050919050565b610ca081610c8b565b82525050565b6000608082019050610cbb6000830187610b1b565b610cc86020830186610c7c565b610cd56040830185610c7c565b610ce26060830184610c97565b95945050505050565b6000602082019050610d006000830184610c7c565b92915050565b600060208284031215610d1c57610d1b610b45565b5b6000610d2a84828501610bfa565b91505092915050565b60008060008060808587031215610d4d57610d4c610b45565b5b6000610d5b87828801610bfa565b9450506020610d6c87828801610b6b565b9350506040610d7d87828801610bce565b9250506060610d8e87828801610b6b565b91505092959194509250565b6000819050919050565b610db5610db082610bad565b610d9a565b82525050565b6000610dc78284610da4565b60208201915081905092915050565b600082825260208201905092915050565b7f696e76616c696400000000000000000000000000000000000000000000000000600082015250565b6000610e1d600783610dd6565b9150610e2882610de7565b602082019050919050565b60006020820190508181036000830152610e4c81610e10565b9050919050565b6000604082019050610e686000830185610b1b565b610e756020830184610c7c565b9392505050565b610e8581610c8b565b8114610e9057600080fd5b50565b600081519050610ea281610e7c565b92915050565b600060208284031215610ebe57610ebd610b45565b5b6000610ecc84828501610e93565b91505092915050565b7f6578697374730000000000000000000000000000000000000000000000000000600082015250565b6000610f0b600683610dd6565b9150610f1682610ed5565b602082019050919050565b60006020820190508181036000830152610f3a81610efe565b9050919050565b7f6261642065787069727900000000000000000000000000000000000000000000600082015250565b6000610f77600a83610dd6565b9150610f8282610f41565b602082019050919050565b60006020820190508181036000830152610fa681610f6a565b9050919050565b7f4e487b7100000000000000000000000000000000000000000000000000000000600052601160045260246000fd5b6000610fe782610b4a565b9150610ff283610b4a565b925082820190508082111561100a57611009610fad565b5b92915050565b7f657468206c6f7700000000000000000000000000000000000000000000000000600082015250565b6000611046600783610dd6565b915061105182611010565b602082019050919050565b6000602082019050818103600083015261107581611039565b9050919050565b7f666565206c6f7700000000000000000000000000000000000000000000000000600082015250565b60006110b2600783610dd6565b91506110bd8261107c565b602082019050919050565b600060208201905081810360008301526110e1816110a5565b9050919050565b60006060820190506110fd6000830186610b1b565b61110a6020830185610b1b565b6111176040830184610c7c565b949350505050565b60006060820190506111346000830186610b1b565b6111416020830185610c7c565b61114e6040830184610c7c565b949350505050565b7f4f776e61626c653a206e6577206f776e657220697320746865207a65726f206160008201527f6464726573730000000000000000000000000000000000000000000000000000602082015250565b60006111b2602683610dd6565b91506111bd82611156565b604082019050919050565b600060208201905081810360008301526111e1816111a5565b9050919050565b7f4f776e61626c653a2063616c6c6572206973206e6f7420746865206f776e6572600082015250565b600061121e602083610dd6565b9150611229826111e8565b602082019050919050565b6000602082019050818103600083015261124d81611211565b905091905056fea264697066735822122043ff056e2e61a7e0b7056ea1199b1b9c34cfb519950c313f28ee33b85463612964736f6c63430008130033",
  "linkReferences": {},
  "deployedLinkReferences": {}
}