{
  "_format": "hh-sol-artifact-1",
  "contractName": "Verifier",
  "sourceName": "contracts/Verifier.sol",
  "abi": [
    {
      "inputs": [
        {
          "internalType": "bytes",
          "name": "",
          "type": "bytes"
        },
        {
          "internalType": "uint256[]",
          "name": "",
          "type": "uint256[]"
        }
      ],
      "name": "verifyProof",
      "outputs": [
        {
          "internalType": "bool",
          "name": "",
          "type": "bool"
        }
      ],
      "stateMutability": "pure",
      "type": "function"
    }
  ],
  "bytecode": "0x608060405234801561001057600080fd5b506103a8806100206000396000f3fe608060405234801561001057600080fd5b506004361061002b5760003560e01c80631e8e1e1314610030575b600080fd5b61004a600480360381019061004591906102c4565b610060565b6040516100579190610357565b60405180910390f35b60006001905092915050565b6000604051905090565b600080fd5b600080fd5b600080fd5b600080fd5b6000601f19601f8301169050919050565b7f4e487b7100000000000000000000000000000000000000000000000000000000600052604160045260246000fd5b6100d38261008a565b810181811067ffffffffffffffff821117156100f2576100f161009b565b5b80604052505050565b600061010561006c565b905061011182826100ca565b919050565b600067ffffffffffffffff8211156101315761013061009b565b5b61013a8261008a565b9050602081019050919050565b82818337600083830152505050565b600061016961016484610116565b6100fb565b90508281526020810184848401111561018557610184610085565b5b610190848285610147565b509392505050565b600082601f8301126101ad576101ac610080565b5b81356101bd848260208601610156565b91505092915050565b600067ffffffffffffffff8211156101e1576101e061009b565b5b602082029050602081019050919050565b600080fd5b6000819050919050565b61020a816101f7565b811461021557600080fd5b50565b60008135905061022781610201565b92915050565b600061024061023b846101c6565b6100fb565b90508083825260208201905060208402830185811115610263576102626101f2565b5b835b8181101561028c57806102788882610218565b845260208401935050602081019050610265565b5050509392505050565b600082601f8301126102ab576102aa610080565b5b81356102bb84826020860161022d565b91505092915050565b600080604083850312156102db576102da610076565b5b600083013567ffffffffffffffff8111156102f9576102f861007b565b5b61030585828601610198565b925050602083013567ffffffffffffffff8111156103265761032561007b565b5b61033285828601610296565b9150509250929050565b60008115159050919050565b6103518161033c565b82525050565b600060208201905061036c6000830184610348565b9291505056fea264697066735822122036ef9c535976fdc0a277c97750244f93a3df0f753512a02d890c6a7608748e4064736f6c63430008130033",
  "linkReferences": {},
  "deployedLinkReferences": {}
}